{
  "contractName": "MedicalRecords",
  "abi": [
    {
      "inputs": [],
      "stateMutability": "nonpayable",
      "type": "constructor"
    },
    {
      "anonymous": false,
      "inputs": [
        {
          "indexed": true,
          "internalType": "address",
          "name": "patientAddress",
          "type": "address"
        },
        {
          "indexed": true,
          "internalType": "address",
          "name": "accessAddress",
          "type": "address"
        },
        {
          "indexed": false,
          "internalType": "uint256",
          "name": "expiryTime",
          "type": "uint256"
        }
      ],
      "name": "ConsentGiven",
      "type": "event"
    },
    {
      "anonymous": false,
      "inputs": [
        {
          "indexed": true,
          "internalType": "address",
          "name": "doctorAddress",
          "type": "address"
        }
      ],
      "name": "DoctorRegistered",
      "type": "event"
    },
    {
      "anonymous": false,
      "inputs": [
        {
          "indexed": true,
          "internalType": "address",
          "name": "patientAddress",
          "type": "address"
        },
        {
          "indexed": false,
          "internalType": "string",
          "name": "patientId",
          "type": "string"
        }
      ],
      "name": "PatientRegistered",
      "type": "event"
    },
    {
      "anonymous": false,
      "inputs": [
        {
          "indexed": true,
          "internalType": "address",
          "name": "patientAddress",
          "type": "address"
        },
        {
          "indexed": false,
          "internalType": "uint256",
          "name": "recordId",
          "type": "uint256"
        },
        {
          "indexed": false,
          "internalType": "string",
          "name": "recordType",
          "type": "string"
        }
      ],
      "name": "RecordAdded",
      "type": "event"
    },
    {
      "inputs": [
        {
          "internalType": "address",
          "name": "_doctorAddress",
          "type": "address"
        }
      ],
      "name": "registerDoctor",
      "outputs": [],
      "stateMutability": "nonpayable",
      "type": "function"
    },
    {
      "inputs": [
        {
          "internalType": "string",
          "name": "_name",
          "type": "string"
        },
        {
          "internalType": "string",
          "name": "_id",
          "type": "string"
        }
      ],
      "name": "registerPatient",
      "outputs": [],
      "stateMutability": "nonpayable",
      "type": "function"
    },
    {
      "inputs": [
        {
          "internalType": "address",
          "name": "_patientAddress",
          "type": "address"
        },
        {
          "internalType": "string",
          "name": "_recordType",
          "type": "string"
        },
        {
          "internalType": "string",
          "name": "_recordHash",
          "type": "string"
        },
        {
          "internalType": "string",
          "name": "_doctorName",
          "type": "string"
        },
        {
          "internalType": "string",
          "name": "_metadata",
          "type": "string"
        }
      ],
      "name": "addRecord",
      "outputs": [],
      "stateMutability": "nonpayable",
      "type": "function"
    },
    {
      "inputs": [
        {
          "internalType": "address",
          "name": "_accessor",
          "type": "address"
        },
        {
          "internalType": "uint256",
          "name": "_durationInDays",
          "type": "uint256"
        }
      ],
      "name": "grantConsent",
      "outputs": [],
      "stateMutability": "nonpayable",
      "type": "function"
    },
    {
      "inputs": [
        {
          "internalType": "address",
          "name": "_accessor",
          "type": "address"
        }
      ],
      "name": "revokeConsent",
      "outputs": [],
      "stateMutability": "nonpayable",
      "type": "function"
    },
    {
      "inputs": [],
      "name": "getPatientDetails",
      "outputs": [
        {
          "internalType": "string",
          "name": "",
          "type": "string"
        },
        {
          "internalType": "string",
          "name": "",
          "type": "string"
        },
        {
          "internalType": "uint256",
          "name": "",
          "type": "uint256"
        }
      ],
      "stateMutability": "view",
      "type": "function",
      "constant": true
    },
    {
      "inputs": [
        {
          "internalType": "uint256",
          "name": "_recordId",
          "type": "uint256"
        }
      ],
      "name": "getRecordDetails",
      "outputs": [
        {
          "internalType": "string",
          "name": "",
          "type": "string"
        },
        {
          "internalType": "string",
          "name": "",
          "type": "string"
        },
        {
          "internalType": "uint256",
          "name": "",
          "type": "uint256"
        },
        {
          "internalType": "address",
          "name": "",
          "type": "address"
        },
        {
          "internalType": "string",
          "name": "",
          "type": "string"
        },
        {
          "internalType": "string",
          "name": "",
          "type": "string"
        }
      ],
      "stateMutability": "view",
      "type": "function",
      "constant": true
    },
    {
      "inputs": [
        {
          "internalType": "address",
          "name": "_patientAddress",
          "type": "address"
        },
        {
          "internalType": "address",
          "name": "_accessor",
          "type": "address"
        }
      ],
      "name": "checkConsent",
      "outputs": [
        {
          "internalType": "bool",
          "name": "",
          "type": "bool"
        }
      ],
      "stateMutability": "view",
      "type": "function",
      "constant": true
    },
    {
      "inputs": [
        {
          "internalType": "address",
          "name": "_address",
          "type": "address"
        }
      ],
      "name": "isDoctor",
      "outputs": [
        {
          "internalType": "bool",
          "name": "",
          "type": "bool"
        }
      ],
      "stateMutability": "view",
      "type": "function",
      "constant": true
    },
    {
      "inputs": [
        {
          "internalType": "address",
          "name": "_address",
          "type": "address"
        }
      ],
      "name": "isAdmin",
      "outputs": [
        {
          "internalType": "bool",
          "name": "",
          "type": "bool"
        }
      ],
      "stateMutability": "view",
      "type": "function",
      "constant": true
    }
  ],
  "bytecode": "0x608060405234801561001057600080fd5b5033600360006101000a81548173ffffffffffffffffffffffffffffffffffffffff021916908373ffffffffffffffffffffffffffffffffffffffff160217905550611fa4806100616000396000f3fe608060405234801561001057600080fd5b506004361061009e5760003560e01c8063996440c611610066578063996440c6146101575780639d15e77f14610187578063d1a48627146101a3578063d8c08673146101bf578063f2f4adae146101f45761009e565b80631ab64e4b146100a357806324d7806c146100d3578063413e63ad14610103578063699ca9981461011f57806380911fa41461013b575b600080fd5b6100bd60048036038101906100b891906112ee565b610214565b6040516100ca9190611349565b60405180910390f35b6100ed60048036038101906100e89190611364565b6102a2565b6040516100fa9190611349565b60405180910390f35b61011d600480360381019061011891906114d7565b6102fc565b005b61013960048036038101906101349190611364565b61065a565b005b610155600480360381019061015091906115c2565b610788565b005b610171600480360381019061016c9190611364565b610988565b60405161017e9190611349565b60405180910390f35b6101a1600480360381019061019c9190611670565b6109de565b005b6101bd60048036038101906101b89190611364565b610b75565b005b6101d960048036038101906101d491906116b0565b610c88565b6040516101eb9695949392919061177a565b60405180910390f35b6101fc611076565b60405161020b939291906117f7565b60405180910390f35b600080600460008573ffffffffffffffffffffffffffffffffffffffff1673ffffffffffffffffffffffffffffffffffffffff16815260200190815260200160002060008473ffffffffffffffffffffffffffffffffffffffff1673ffffffffffffffffffffffffffffffffffffffff16815260200190815260200160002054905042811191505092915050565b6000600360009054906101000a900473ffffffffffffffffffffffffffffffffffffffff1673ffffffffffffffffffffffffffffffffffffffff168273ffffffffffffffffffffffffffffffffffffffff16149050919050565b600260003373ffffffffffffffffffffffffffffffffffffffff1673ffffffffffffffffffffffffffffffffffffffff16815260200190815260200160002060009054906101000a900460ff16610388576040517f08c379a000000000000000000000000000000000000000000000000000000000815260040161037f906118ae565b60405180910390fd5b6000808673ffffffffffffffffffffffffffffffffffffffff1673ffffffffffffffffffffffffffffffffffffffff16815260200190815260200160002060000160009054906101000a900460ff16610416576040517f08c379a000000000000000000000000000000000000000000000000000000000815260040161040d9061191a565b60405180910390fd5b60008060008773ffffffffffffffffffffffffffffffffffffffff1673ffffffffffffffffffffffffffffffffffffffff1681526020019081526020016000206003015490506040518060e001604052808281526020018681526020018581526020014281526020013373ffffffffffffffffffffffffffffffffffffffff16815260200184815260200183815250600160008873ffffffffffffffffffffffffffffffffffffffff1673ffffffffffffffffffffffffffffffffffffffff16815260200190815260200160002060008381526020019081526020016000206000820151816000015560208201518160010190816105149190611b46565b50604082015181600201908161052a9190611b46565b506060820151816003015560808201518160040160006101000a81548173ffffffffffffffffffffffffffffffffffffffff021916908373ffffffffffffffffffffffffffffffffffffffff16021790555060a08201518160050190816105919190611b46565b5060c08201518160060190816105a79190611b46565b509050506000808773ffffffffffffffffffffffffffffffffffffffff1673ffffffffffffffffffffffffffffffffffffffff16815260200190815260200160002060030160008154809291906105fd90611c47565b91905055508573ffffffffffffffffffffffffffffffffffffffff167fa9ad46db2c884e6e6299f7bb4005897a4368a2f8a56ddd645874bb9498a03bab828760405161064a929190611c8f565b60405180910390a2505050505050565b600360009054906101000a900473ffffffffffffffffffffffffffffffffffffffff1673ffffffffffffffffffffffffffffffffffffffff163373ffffffffffffffffffffffffffffffffffffffff16146106ea576040517f08c379a00000000000000000000000000000000000000000000000000000000081526004016106e190611d31565b60405180910390fd5b6001600260008373ffffffffffffffffffffffffffffffffffffffff1673ffffffffffffffffffffffffffffffffffffffff16815260200190815260200160002060006101000a81548160ff0219169083151502179055508073ffffffffffffffffffffffffffffffffffffffff167f2dc8105a7545248d0e354c4c6b02fb583071cc719fb4bef1ca74d72d475570bc60405160405180910390a250565b6000803373ffffffffffffffffffffffffffffffffffffffff1673ffffffffffffffffffffffffffffffffffffffff16815260200190815260200160002060000160009054906101000a900460ff1615610817576040517f08c379a000000000000000000000000000000000000000000000000000000000815260040161080e90611d9d565b60405180910390fd5b6040518060a001604052806001151581526020013373ffffffffffffffffffffffffffffffffffffffff16815260200183815260200182815260200160008152506000803373ffffffffffffffffffffffffffffffffffffffff1673ffffffffffffffffffffffffffffffffffffffff16815260200190815260200160002060008201518160000160006101000a81548160ff02191690831515021790555060208201518160000160016101000a81548173ffffffffffffffffffffffffffffffffffffffff021916908373ffffffffffffffffffffffffffffffffffffffff16021790555060408201518160010190816109129190611b46565b5060608201518160020190816109289190611b46565b50608082015181600301559050503373ffffffffffffffffffffffffffffffffffffffff167fc85b128388b9c331a2a5485dce4cd0f3db9f7c279d327ce95d6d39d6c94644c78260405161097c9190611dbd565b60405180910390a25050565b6000600260008373ffffffffffffffffffffffffffffffffffffffff1673ffffffffffffffffffffffffffffffffffffffff16815260200190815260200160002060009054906101000a900460ff169050919050565b6000803373ffffffffffffffffffffffffffffffffffffffff1673ffffffffffffffffffffffffffffffffffffffff16815260200190815260200160002060000160009054906101000a900460ff16610a6c576040517f08c379a0000000000000000000000000000000000000000000000000000000008152600401610a6390611e51565b60405180910390fd5b60006201518082610a7d9190611e71565b42610a889190611eb3565b905080600460003373ffffffffffffffffffffffffffffffffffffffff1673ffffffffffffffffffffffffffffffffffffffff16815260200190815260200160002060008573ffffffffffffffffffffffffffffffffffffffff1673ffffffffffffffffffffffffffffffffffffffff168152602001908152602001600020819055508273ffffffffffffffffffffffffffffffffffffffff163373ffffffffffffffffffffffffffffffffffffffff167f2f187c4a7e968f93bf4a9722d261af8f14966748773eedce80e4492d724298b683604051610b689190611ee7565b60405180910390a3505050565b6000803373ffffffffffffffffffffffffffffffffffffffff1673ffffffffffffffffffffffffffffffffffffffff16815260200190815260200160002060000160009054906101000a900460ff16610c03576040517f08c379a0000000000000000000000000000000000000000000000000000000008152600401610bfa90611e51565b60405180910390fd5b6000600460003373ffffffffffffffffffffffffffffffffffffffff1673ffffffffffffffffffffffffffffffffffffffff16815260200190815260200160002060008373ffffffffffffffffffffffffffffffffffffffff1673ffffffffffffffffffffffffffffffffffffffff1681526020019081526020016000208190555050565b6060806000806060806000803373ffffffffffffffffffffffffffffffffffffffff1673ffffffffffffffffffffffffffffffffffffffff16815260200190815260200160002060000160009054906101000a900460ff16610d1f576040517f08c379a0000000000000000000000000000000000000000000000000000000008152600401610d169061191a565b60405180910390fd5b6000803373ffffffffffffffffffffffffffffffffffffffff1673ffffffffffffffffffffffffffffffffffffffff168152602001908152602001600020600301548710610da2576040517f08c379a0000000000000000000000000000000000000000000000000000000008152600401610d9990611f4e565b60405180910390fd5b6000600160003373ffffffffffffffffffffffffffffffffffffffff1673ffffffffffffffffffffffffffffffffffffffff16815260200190815260200160002060008981526020019081526020016000209050806001018160020182600301548360040160009054906101000a900473ffffffffffffffffffffffffffffffffffffffff168460050185600601858054610e3c90611969565b80601f0160208091040260200160405190810160405280929190818152602001828054610e6890611969565b8015610eb55780601f10610e8a57610100808354040283529160200191610eb5565b820191906000526020600020905b815481529060010190602001808311610e9857829003601f168201915b50505050509550848054610ec890611969565b80601f0160208091040260200160405190810160405280929190818152602001828054610ef490611969565b8015610f415780601f10610f1657610100808354040283529160200191610f41565b820191906000526020600020905b815481529060010190602001808311610f2457829003601f168201915b50505050509450818054610f5490611969565b80601f0160208091040260200160405190810160405280929190818152602001828054610f8090611969565b8015610fcd5780601f10610fa257610100808354040283529160200191610fcd565b820191906000526020600020905b815481529060010190602001808311610fb057829003601f168201915b50505050509150808054610fe090611969565b80601f016020809104026020016040519081016040528092919081815260200182805461100c90611969565b80156110595780601f1061102e57610100808354040283529160200191611059565b820191906000526020600020905b81548152906001019060200180831161103c57829003601f168201915b505050505090509650965096509650965096505091939550919395565b60608060008060003373ffffffffffffffffffffffffffffffffffffffff1673ffffffffffffffffffffffffffffffffffffffff16815260200190815260200160002060000160009054906101000a900460ff16611109576040517f08c379a00000000000000000000000000000000000000000000000000000000081526004016111009061191a565b60405180910390fd5b60008060003373ffffffffffffffffffffffffffffffffffffffff1673ffffffffffffffffffffffffffffffffffffffff16815260200190815260200160002090508060010181600201826003015482805461116490611969565b80601f016020809104026020016040519081016040528092919081815260200182805461119090611969565b80156111dd5780601f106111b2576101008083540402835291602001916111dd565b820191906000526020600020905b8154815290600101906020018083116111c057829003601f168201915b505050505092508180546111f090611969565b80601f016020809104026020016040519081016040528092919081815260200182805461121c90611969565b80156112695780601f1061123e57610100808354040283529160200191611269565b820191906000526020600020905b81548152906001019060200180831161124c57829003601f168201915b5050505050915093509350935050909192565b6000604051905090565b600080fd5b600080fd5b600073ffffffffffffffffffffffffffffffffffffffff82169050919050565b60006112bb82611290565b9050919050565b6112cb816112b0565b81146112d657600080fd5b50565b6000813590506112e8816112c2565b92915050565b6000806040838503121561130557611304611286565b5b6000611313858286016112d9565b9250506020611324858286016112d9565b9150509250929050565b60008115159050919050565b6113438161132e565b82525050565b600060208201905061135e600083018461133a565b92915050565b60006020828403121561137a57611379611286565b5b6000611388848285016112d9565b91505092915050565b600080fd5b600080fd5b6000601f19601f8301169050919050565b7f4e487b7100000000000000000000000000000000000000000000000000000000600052604160045260246000fd5b6113e48261139b565b810181811067ffffffffffffffff82111715611403576114026113ac565b5b80604052505050565b600061141661127c565b905061142282826113db565b919050565b600067ffffffffffffffff821115611442576114416113ac565b5b61144b8261139b565b9050602081019050919050565b82818337600083830152505050565b600061147a61147584611427565b61140c565b90508281526020810184848401111561149657611495611396565b5b6114a1848285611458565b509392505050565b600082601f8301126114be576114bd611391565b5b81356114ce848260208601611467565b91505092915050565b600080600080600060a086880312156114f3576114f2611286565b5b6000611501888289016112d9565b955050602086013567ffffffffffffffff8111156115225761152161128b565b5b61152e888289016114a9565b945050604086013567ffffffffffffffff81111561154f5761154e61128b565b5b61155b888289016114a9565b935050606086013567ffffffffffffffff81111561157c5761157b61128b565b5b611588888289016114a9565b925050608086013567ffffffffffffffff8111156115a9576115a861128b565b5b6115b5888289016114a9565b9150509295509295909350565b600080604083850312156115d9576115d8611286565b5b600083013567ffffffffffffffff8111156115f7576115f661128b565b5b611603858286016114a9565b925050602083013567ffffffffffffffff8111156116245761162361128b565b5b611630858286016114a9565b9150509250929050565b6000819050919050565b61164d8161163a565b811461165857600080fd5b50565b60008135905061166a81611644565b92915050565b6000806040838503121561168757611686611286565b5b6000611695858286016112d9565b92505060206116a68582860161165b565b9150509250929050565b6000602082840312156116c6576116c5611286565b5b60006116d48482850161165b565b91505092915050565b600081519050919050565b600082825260208201905092915050565b60005b838110156117175780820151818401526020810190506116fc565b60008484015250505050565b600061172e826116dd565b61173881856116e8565b93506117488185602086016116f9565b6117518161139b565b840191505092915050565b6117658161163a565b82525050565b611774816112b0565b82525050565b600060c08201905081810360008301526117948189611723565b905081810360208301526117a88188611723565b90506117b7604083018761175c565b6117c4606083018661176b565b81810360808301526117d68185611723565b905081810360a08301526117ea8184611723565b9050979650505050505050565b600060608201905081810360008301526118118186611723565b905081810360208301526118258185611723565b9050611834604083018461175c565b949350505050565b7f4f6e6c79207265676973746572656420646f63746f72732063616e207065726660008201527f6f726d207468697320616374696f6e0000000000000000000000000000000000602082015250565b6000611898602f836116e8565b91506118a38261183c565b604082019050919050565b600060208201905081810360008301526118c78161188b565b9050919050565b7f50617469656e7420646f6573206e6f7420657869737400000000000000000000600082015250565b60006119046016836116e8565b915061190f826118ce565b602082019050919050565b60006020820190508181036000830152611933816118f7565b9050919050565b7f4e487b7100000000000000000000000000000000000000000000000000000000600052602260045260246000fd5b6000600282049050600182168061198157607f821691505b6020821081036119945761199361193a565b5b50919050565b60008190508160005260206000209050919050565b60006020601f8301049050919050565b600082821b905092915050565b6000600883026119fc7fffffffffffffffffffffffffffffffffffffffffffffffffffffffffffffffff826119bf565b611a0686836119bf565b95508019841693508086168417925050509392505050565b6000819050919050565b6000611a43611a3e611a398461163a565b611a1e565b61163a565b9050919050565b6000819050919050565b611a5d83611a28565b611a71611a6982611a4a565b8484546119cc565b825550505050565b600090565b611a86611a79565b611a91818484611a54565b505050565b5b81811015611ab557611aaa600082611a7e565b600181019050611a97565b5050565b601f821115611afa57611acb8161199a565b611ad4846119af565b81016020851015611ae3578190505b611af7611aef856119af565b830182611a96565b50505b505050565b600082821c905092915050565b6000611b1d60001984600802611aff565b1980831691505092915050565b6000611b368383611b0c565b9150826002028217905092915050565b611b4f826116dd565b67ffffffffffffffff811115611b6857611b676113ac565b5b611b728254611969565b611b7d828285611ab9565b600060209050601f831160018114611bb05760008415611b9e578287015190505b611ba88582611b2a565b865550611c10565b601f198416611bbe8661199a565b60005b82811015611be657848901518255600182019150602085019450602081019050611bc1565b86831015611c035784890151611bff601f891682611b0c565b8355505b6001600288020188555050505b505050505050565b7f4e487b7100000000000000000000000000000000000000000000000000000000600052601160045260246000fd5b6000611c528261163a565b91507fffffffffffffffffffffffffffffffffffffffffffffffffffffffffffffffff8203611c8457611c83611c18565b5b600182019050919050565b6000604082019050611ca4600083018561175c565b8181036020830152611cb68184611723565b90509392505050565b7f4f6e6c792061646d696e2063616e20706572666f726d2074686973206163746960008201527f6f6e000000000000000000000000000000000000000000000000000000000000602082015250565b6000611d1b6022836116e8565b9150611d2682611cbf565b604082019050919050565b60006020820190508181036000830152611d4a81611d0e565b9050919050565b7f50617469656e7420616c72656164792072656769737465726564000000000000600082015250565b6000611d87601a836116e8565b9150611d9282611d51565b602082019050919050565b60006020820190508181036000830152611db681611d7a565b9050919050565b60006020820190508181036000830152611dd78184611723565b905092915050565b7f4f6e6c7920726567697374657265642070617469656e74732063616e2070657260008201527f666f726d207468697320616374696f6e00000000000000000000000000000000602082015250565b6000611e3b6030836116e8565b9150611e4682611ddf565b604082019050919050565b60006020820190508181036000830152611e6a81611e2e565b9050919050565b6000611e7c8261163a565b9150611e878361163a565b9250828202611e958161163a565b91508282048414831517611eac57611eab611c18565b5b5092915050565b6000611ebe8261163a565b9150611ec98361163a565b9250828201905080821115611ee157611ee0611c18565b5b92915050565b6000602082019050611efc600083018461175c565b92915050565b7f5265636f726420646f6573206e6f742065786973740000000000000000000000600082015250565b6000611f386015836116e8565b9150611f4382611f02565b602082019050919050565b60006020820190508181036000830152611f6781611f2b565b905091905056fea264697066735822122037a831da627c68a586edd8a3d840c8632a6ac1b6993ea4634b5b8c8234d9305464736f6c63430008110033",
  "immutableReferences": {},
  "source": "// SPDX-License-Identifier: MIT\r\npragma solidity ^0.8.0;\r\n\r\ncontract MedicalRecords {\r\n    // Structures\r\n    struct Patient {\r\n        bool exists;\r\n        address patientAddress;\r\n        string patientName;\r\n        string patientId; // e.g., SSN or custom ID\r\n        uint256 recordCount;\r\n        // Removed mapping from struct\r\n    }\r\n\r\n    struct Record {\r\n        uint256 id;\r\n        string recordType; // e.g., \"Prescription\", \"Lab Report\", \"Diagnosis\"\r\n        string recordHash; // IPFS hash of the encrypted record\r\n        uint256 timestamp;\r\n        address doctorAddress;\r\n        string doctorName;\r\n        string metadata; // Additional information in JSON format\r\n    }\r\n\r\n    // State variables\r\n    mapping(address => Patient) private patients;\r\n    // Two level mapping instead of nested mapping in struct\r\n    mapping(address => mapping(uint256 => Record)) private patientRecords;\r\n    mapping(address => bool) private doctors;\r\n    address private admin;\r\n\r\n    // Events\r\n    event PatientRegistered(address indexed patientAddress, string patientId);\r\n    event DoctorRegistered(address indexed doctorAddress);\r\n    event RecordAdded(\r\n        address indexed patientAddress,\r\n        uint256 recordId,\r\n        string recordType\r\n    );\r\n    event ConsentGiven(\r\n        address indexed patientAddress,\r\n        address indexed accessAddress,\r\n        uint256 expiryTime\r\n    );\r\n\r\n    // Access modifiers\r\n    modifier onlyAdmin() {\r\n        require(msg.sender == admin, \"Only admin can perform this action\");\r\n        _;\r\n    }\r\n\r\n    modifier onlyDoctor() {\r\n        require(\r\n            doctors[msg.sender],\r\n            \"Only registered doctors can perform this action\"\r\n        );\r\n        _;\r\n    }\r\n\r\n    modifier onlyPatient() {\r\n        require(\r\n            patients[msg.sender].exists,\r\n            \"Only registered patients can perform this action\"\r\n        );\r\n        _;\r\n    }\r\n\r\n    // Consent system\r\n    mapping(address => mapping(address => uint256)) private consents; // patient -> accessor -> expiry timestamp\r\n\r\n    constructor() {\r\n        admin = msg.sender;\r\n    }\r\n\r\n    // Admin functions\r\n    function registerDoctor(address _doctorAddress) public onlyAdmin {\r\n        doctors[_doctorAddress] = true;\r\n        emit DoctorRegistered(_doctorAddress);\r\n    }\r\n\r\n    // Patient functions\r\n    function registerPatient(string memory _name, string memory _id) public {\r\n        require(!patients[msg.sender].exists, \"Patient already registered\");\r\n\r\n        patients[msg.sender] = Patient({\r\n            exists: true,\r\n            patientAddress: msg.sender,\r\n            patientName: _name,\r\n            patientId: _id,\r\n            recordCount: 0\r\n        });\r\n\r\n        emit PatientRegistered(msg.sender, _id);\r\n    }\r\n\r\n    function addRecord(\r\n        address _patientAddress,\r\n        string memory _recordType,\r\n        string memory _recordHash,\r\n        string memory _doctorName,\r\n        string memory _metadata\r\n    ) public onlyDoctor {\r\n        require(patients[_patientAddress].exists, \"Patient does not exist\");\r\n\r\n        uint256 newRecordId = patients[_patientAddress].recordCount;\r\n\r\n        patientRecords[_patientAddress][newRecordId] = Record({\r\n            id: newRecordId,\r\n            recordType: _recordType,\r\n            recordHash: _recordHash,\r\n            timestamp: block.timestamp,\r\n            doctorAddress: msg.sender,\r\n            doctorName: _doctorName,\r\n            metadata: _metadata\r\n        });\r\n\r\n        patients[_patientAddress].recordCount++;\r\n\r\n        emit RecordAdded(_patientAddress, newRecordId, _recordType);\r\n    }\r\n\r\n    function grantConsent(\r\n        address _accessor,\r\n        uint256 _durationInDays\r\n    ) public onlyPatient {\r\n        uint256 expiryTime = block.timestamp + (_durationInDays * 1 days);\r\n        consents[msg.sender][_accessor] = expiryTime;\r\n        emit ConsentGiven(msg.sender, _accessor, expiryTime);\r\n    }\r\n\r\n    function revokeConsent(address _accessor) public onlyPatient {\r\n        consents[msg.sender][_accessor] = 0;\r\n    }\r\n\r\n    // View functions\r\n    function getPatientDetails()\r\n        public\r\n        view\r\n        returns (string memory, string memory, uint256)\r\n    {\r\n        require(patients[msg.sender].exists, \"Patient does not exist\");\r\n        Patient storage patient = patients[msg.sender];\r\n        return (patient.patientName, patient.patientId, patient.recordCount);\r\n    }\r\n\r\n    function getRecordDetails(\r\n        uint256 _recordId\r\n    )\r\n        public\r\n        view\r\n        returns (\r\n            string memory,\r\n            string memory,\r\n            uint256,\r\n            address,\r\n            string memory,\r\n            string memory\r\n        )\r\n    {\r\n        require(patients[msg.sender].exists, \"Patient does not exist\");\r\n        require(\r\n            _recordId < patients[msg.sender].recordCount,\r\n            \"Record does not exist\"\r\n        );\r\n\r\n        Record storage record = patientRecords[msg.sender][_recordId];\r\n        return (\r\n            record.recordType,\r\n            record.recordHash,\r\n            record.timestamp,\r\n            record.doctorAddress,\r\n            record.doctorName,\r\n            record.metadata\r\n        );\r\n    }\r\n\r\n    function checkConsent(\r\n        address _patientAddress,\r\n        address _accessor\r\n    ) public view returns (bool) {\r\n        uint256 expiryTime = consents[_patientAddress][_accessor];\r\n        return (expiryTime > block.timestamp);\r\n    }\r\n\r\n    function isDoctor(address _address) public view returns (bool) {\r\n        return doctors[_address];\r\n    }\r\n\r\n    function isAdmin(address _address) public view returns (bool) {\r\n        return _address == admin;\r\n    }\r\n}\r\n",
  "sourcePath": "D:\\Ashaya Sah\\Himal AI\\test-contract\\contracts\\MedicalRecords.sol",
  "compiler": {
    "name": "solc",
    "version": "0.8.17+commit.8df45f5f.Emscripten.clang"
  },
  "schemaVersion": "3.4.16",
  "updatedAt": "2025-04-12T02:31:27.186Z",
  "networkType": "ethereum",
  "devdoc": {
    "kind": "dev",
    "methods": {},
    "version": 1
  },
  "userdoc": {
    "kind": "user",
    "methods": {},
    "version": 1
  }
}